S01200004D6F746F725F746573742E73726563E2
S11300000C9434000C943E000C943E000C943E007E
S11300100C943E000C943E000C943E000C943E0064
S11300200C943E000C943E000C943E000C943E0054
S11300300C943E000C943E000C943E000C943E0044
S11300400C943E000C943E000C943E000C943E0034
S11300500C943E000C943E000C943E000C943E0024
S11300600C943E000C943E0011241FBECFEFD8E048
S1130070DEBFCDBF0E9458000C9488000C94000091
S1130080E0E8F0E0808182608083A1E8B0E08C91B8
S113009088618C938C9182608C9384EF91E090932F
S11300A0870080938600808180688083219A0895E8
S11300B00E94400044E155E028EB3BE08CE592E1EE
S11300C050938900409388006FEF73EDE0E3615033
S11300D07040E040E1F700C00000309389002093B5
S11300E088006FEF73EDE0E361507040E040E1F7AA
S11300F000C0000090938900809388006FEF73ED37
S1130100E0E361507040E040E1F700C00000D8CF68
S1070110F894FFCF8D
S9030000FC
