S01200004D6F746F725F746573742E73726563E2
S11300000C9434000C943E000C943E000C943E007E
S11300100C943E000C943E000C943E000C943E0064
S11300200C943E000C943E000C943E000C943E0054
S11300300C943E000C943E000C943E000C943E0044
S11300400C943E000C943E000C943E000C943E0034
S11300500C943E000C943E000C943E000C943E0024
S11300600C943E000C943E0011241FBECFEFD8E048
S1130070DEBFCDBF0E945A000C9486000C94000091
S1130080E0E8F0E0808182608083A1E8B0E08C91B8
S113009088618C938C9182608C9380E49CE990932A
S11300A087008093860080818068808384B1826029
S11300B084B908950E944000E8E8F0E084E195E006
S11300C0918380832FEF83ED90E321508040904013
S11300D0E1F700C0000088EB9BE0918380832FEF61
S11300E083ED90E3215080409040E1F700C0000090
S11300F08CE592E1918380832FEF83ED90E321508F
S113010080409040E1F700C00000D6CFF894FFCFC4
S9030000FC
